:100000000C945E020C947B020C947B020C947B0299
:100010000C947B020C947B020C947B020C947B026C
:100020000C947B020C947B020C94202D0C94F82DE4
:100030000C94D52C0C947B020C947B020C947B02C8
:100040000C947B020C947B020C947B020C947B023C
:100050000C947B020C94FC2C0C947B020C947B0281
:100060000C947B020C947B020C947B020C947B021C
:100070000C947B020C947B020C947B020C947B020C
:100080000C947B020C947B020C947B020C947B02FC
:100090000C947B020C947B020C947B020C947B02EC
:1000A0000C947B020C947B020C947B0205010902E8
:1000B000A10185020901A1000509190129081500FE
:1000C0002501950875018102050109300931158165
:1000D000257F95027508810609381581257F9501D0
:1000E00075088106050C0A38021581257F95017572
:1000F000088106C0C005010980A101850319012AF4
:10010000B700150126B700950175108100C0050CD8
:100110000901A101850419012AA002150126A002E6
:10012000950175108100C005010906A1018506052C
:100130000719E029E71500250195087501810205D9
:1001400007190029EF1500250195F07501810205B9
:10015000081901290595057501910295017503910D
:1001600001C00660FF0961A1010962150026FF00B8
:100170009520750881020963150026FF00952075FA
:10018000089102C005010906A101050719E029E748
:1001900015002501950875018102950175088101F9
:1001A0000507190029FF150026FF0095067508812F
:1001B000000508190129051500250195057501910E
:1001C00002950175039101C009025B00030100A0C3
:1001D000FA090400000103010100092111010001D5
:1001E00022440007058103080001090401000203FD
:1001F00000000009211101000122220007058203ED
:100200002000010705030320000109040200010387
:1002100000000009211101000122B6000705840336
:100220002000011201000200000008084E084E00E4
:1002300001010200011A036D0061006F005F0030D0
:100240000038002E00670061006D0065007200003C
:10025000000C0343005A004D0041004F0000000411
:1002600003090429003A003B003C003D000000A8BF
:100270000035001E001F0020002100220023002B5B
:100280000014001A000800150017000000390004CF
:10029000001600070009000A000000E1001D001B15
:1002A000000600190005000000E0002152E2002CC9
:1002B00000A900AA000000037C3A003B003C003D7E
:1002C000000000A80035001E001F002000210022B1
:1002D0000023002078277823782578150017000060
:1002E00000217828782478267809000A000000E1A7
:1002F000001100E500010001000100000001000103
:1003000000E2002C00A900AA000000000101010188
:1003100001010101010202020202020202020303C0
:100320000303030303030404040404040405050590
:100330000505060606060607070707070808080852
:10034000090909090A0A0A0B0B0B0C0C0C0D0D0DFF
:100350000E0E0E0F0F0F1010111111121213131495
:1003600014151516161717181819191A1A1B1B1C0D
:100370001D1D1E1E1F202021222223242425262667
:10038000272829292A2B2C2D2D2E2F30313232339C
:100390003435363738393A3B3C3D3E3F40414243A5
:1003A0004445464748494A4C4D4E4F505153545589
:1003B0005658595A5B5D5E5F616264656668696B39
:1003C0006C6D6F7072737577787A7B7D7E808283B7
:1003D0008587888A8C8E8F91939596989A9C9EA0FB
:1003E000A2A3A5A7A9ABADAFB1B3B5B7BABCBEC008
:1003F000C2C4C6C9CBCDCFD1D4D6D8DBDDDFE2E4D1
:10040000E7E9EBEEF0F3F5F8FAFDFF00000000007D
:1004100000000000000000000000000000000000DC
:100420000000000000000000000000000000007E4E
:100430000F00D4FFFFFFC70000007800000000009D
:100440000000002A2B28000000000000000000002F
:1004500000000000000029000000002C1E342021B4
:100460002224342627252E362D3738271E1F2021FB
:1004700022232425263333362E37381F040506075A
:1004800008090A0B0C0D0E0F101112131415161774
:1004900018191A1B1C1D2F3130232D350405060792
:1004A00008090A0B0C0D0E0F101112131415161754
:1004B00018191A1B1C1D2F3130354C0011241FBE7A
:1004C000CFEFDAE0DEBFCDBF12E0A0E0B1E0EAE8B6
:1004D000F0E602C005900D92AA31B107D9F724E0E9
:1004E000AAE1B2E001C01D92A431B207E1F70E9477
:1004F000C1260C945D2F0C940000982F82958F706C
:10050000882311F0982F84E0292F26952695222301
:1005100011F08E5F922F969591118F5F08958093C1
:10052000CD0308958093CE03089521E030E001C00B
:10053000220F8A95EAF78091CE03822B0E949202C5
:10054000089521E030E0A90102C0440F551F8A95AB
:10055000E2F7CA0180959091CE0389230E9492020E
:100560000895292F963098F5873088F590E037E088
:10057000239F800D911D1124282F277041E001C079
:10058000440F2A95EAF723E0969587952A95E1F797
:10059000FC01EE0FFF1FE80FF91FEF55FC4F20E0A5
:1005A00030E070E05191DF011197CB01022E02C0C3
:1005B000969587950A94E2F7817081958527842323
:1005C00085278C932F5F3F4F2330310559F70895CE
:1005D000292F963078F5873068F590E037E0239F33
:1005E000800D911D1124682F677023E096958795E3
:1005F0002A95E1F7FC01EE0FFF1FE80FF91FEF55F9
:10060000FC4F40E050E080E0219130E0062E02C037
:10061000369527950A94E2F721703327042E01C0FE
:10062000220F0A94EAF7822B4F5F5F4F4330510548
:1006300059F7089580E008959091CE0321E030E0CD
:10064000F90101C0EE0F8A95EAF7D90102C0AA0F9D
:10065000BB1F6A95E2F7EA2B01C0220F4A95EAF721
:10066000892F8E23E81305C0892F822B0E949202C6
:1006700008952095822F8923F9CF8091D4039091FA
:10068000D303981301C008958F5F8770FACF9091BC
:10069000CF03809589238093CF03282F27702111C2
:1006A0000DC0891759F09091D10392FF07C086952C
:1006B000869586950E94A1021092CF03089580919D
:1006C000CA039091D203892B5091CB035523C1F0DB
:1006D000909117019923A9F09091D00397FF11C031
:1006E0009DE126E232E040E0F90160812F5F3F4F5B
:1006F00061114F5F9150C0F741111092CB03852BD0
:10070000089595E02EE132E0EECF982F90958091FC
:10071000CA0389238093CA030895803E9105D1F1CD
:10072000C8F48133910509F47FC048F489329105FA
:1007300009F46FC08A32910509F47DC008958933A8
:100740009105E1F082389105C9F08533910509F4EE
:100750005BC00895843E9105D1F148F4823E910535
:1007600031F1833E910541F181EE90E00895863E9E
:100770009105C1F1873E9105E1F108952091D003E3
:100780002370211165C02091D10323FF14C089E299
:1007900090E008952091D00320FD43C03091D10313
:1007A00030FF09C024FF4EC080E090E00895209102
:1007B000D00322FDF7CF08952091D00322FD45C03C
:1007C0003091D10330FD44C024FFF5CFEDCF20910F
:1007D000D10321FFF0CF8091D00384FDE5CF87EED8
:1007E00090E008952091D00323FFE5CF24FDDCCFD6
:1007F000F6CF2091D00323FD2EC03091D10331FFDD
:10080000E3CF84EE90E008952091D00325FFD3CF6D
:10081000BECF2091D00325FD21C02091D10323FF1D
:10082000CACF89E390E008952091D00326FFC3CF7B
:100830008AE290E008952091D00326FFBCCF81E3A7
:1008400090E0089583EE90E0089582EE90E00895A0
:1008500080EE90E0089586EE90E0089585E390E0C4
:10086000AACF9091D00392FF10C041E0282F2471AD
:10087000243009F040E031E0282F2871283009F0B9
:1008800030E0431711F02CE0822793FF10C041E0C5
:10089000282F2471243109F040E031E0282F2871FD
:1008A000283109F030E0431711F02CE08227309115
:1008B000D10330FF10C051E0282F2171213009F001
:1008C00050E041E0282F2871283009F040E054170B
:1008D00011F029E0822731FF10C041E0282F21715B
:1008E000213109F040E031E0282F2871283109F04A
:1008F00030E0431711F029E0822794FD877E0895A8
:100900001F93CF93DF930E948D03EC01811522E5A5
:10091000920708F053C0811540E5940708F0DDC048
:10092000803E9105F8F48D3C910508F0AEC0883A00
:10093000910580F4853A910508F099C081309105C0
:1009400021F00497813A910550F4CE01DF91CF91C7
:100950001F910895885A91094B9708F48BC0C0E005
:10096000D0E0F3CF811550E49507F8F4C11580E28B
:10097000D80708F0CBC0C83ED10538F3CE019A9510
:1009800081159F4160F78D2F0E943104182FCE01F1
:1009900099270E948D03212F30E0322F2227E90171
:1009A000CC27DF71C82BD92BD0CF99270E948D037C
:1009B000CC27DF70C82BD92BD06AC7CF803842E54F
:1009C0009407C8F5803652E5950708F067C0C03433
:1009D00082E5D807B0F08C2F86958695877020E247
:1009E000829FC0011124C37021E030E0A90102C040
:1009F000440F551FCA95E2F7EA01C82BD92BDC68D2
:100A0000A4CFC03252E5D50708F041C08C2F86959F
:100A1000869520E2829FC0011124C37021E030E05E
:100A2000A90102C0440F551FCA95E2F7EA01C82B7D
:100A3000D92BDD688ACF803C52E5950760F48F7131
:100A4000C03AD24508F03FC090E0982F8827EC01CB
:100A5000C46FD06A7ACF805C9245809708F07FCFD0
:100A6000DC2FCC27CC27DF71C06FD06A6ECFA49764
:100A7000D0646BCFC85AD0E0CC0FDD1FCC51DE4F15
:100A80000990D881C02DD46460CFD0655ECFCF717E
:100A9000D0E0DC2FCC27C16FD06A57CF86958695E2
:100AA000877020E2829FC0011124C37021E030E0F2
:100AB000A90102C0440F551FCA95E2F7EA01C82BED
:100AC000D92BDA6842CF0E943104C82FD0E0DC2F46
:100AD000CC27CC27DF71D06238CF8F710E943104D0
:100AE00065E0D695C7956A95E1F7CF70D0E0DC2F29
:100AF000CC27282F30E084FF05C054E0220F331F9D
:100B00005A95E1F7C22BD32BD0691FCF8D2F8F7150
:100B10000E943104182FCE0199270E948D03212FA6
:100B200030E0322F222722273F71282B392BE90171
:100B3000D2CF80E00895F894E82FE295EF70F0E0CE
:100B400041A18F7021E030E0B90102C0660F771F2C
:100B50008A95E2F7CB01962F9095942391A392A1C9
:100B6000892B82A378940895A0E0B0E0EAEBF5E049
:100B70000C949D2EE82FF0E0E55FFC4F711109C049
:100B8000E4918E2F7E2F6E2FCDB7DEB7EAE00C9466
:100B9000B92E262F30E0C72FD0E0F491EF2F86E05A
:100BA000829F8001839F100D1124EE24EA94F12C82
:100BB000C801B7010E94412EAB01220F331F65E52A
:100BC000649FC001659F900D1124281B390B822F53
:100BD000880F280FC7018C1B9D0BF89FD001F99F30
:100BE000B00D11248B2F2C9FB0012D9F700D11245F
:100BF000672F77275701A61AB70AFA9D6001FB9D58
:100C0000D00C11247D2D5701A21AB10895012C9FFB
:100C100050012D9FB00C3C9FB00C1124AB2CBB2479
:100C2000EA18FB08FE9DE001FF9DD00D1124433022
:100C30005105C1F00C3F93E0190750F441305105C4
:100C400009F4A1CF4230510589F07E2FED2F9BCFC3
:100C50004430510571F046305105B9F3EB2F8D2D1D
:100C60007F2F91CFED2D7B2F8F2F8DCF7B2F8D2F32
:100C70008ACF7D2FEB2FF8CF9C0180E090E0269F5C
:100C8000812D369F800D911D112408959C01823085
:100C9000910508F408959FEF213E8EE1380740F456
:100CA000C90145E0969587954A95E1F798E0980F38
:100CB00061E0E62FE90FFF27FF1FAF01559547952C
:100CC000842F449FF001459FF00DF00D11242E1745
:100CD0003F0738F49FEF940F961758F78FEF860F62
:100CE00008954F3FE9F361E0640FF6CF40910301AF
:100CF0005091040125E038E0429FC001439F900DD0
:100D0000529F900D1124875E994C9093040180931B
:100D10000301890F0895982FE82F96FDE0958E2FF7
:100D20008F7096FD8F5FE695E695E695E670F0E0AC
:100D3000E15DFE4F2181289F202D812D11242295D8
:100D40002F708295807F282B8081820F97FD81955F
:100D500080580895FC019B01009719F4832F807837
:100D60000895AC0197FF04C044275527481B590B31
:100D7000B901640F751F37FD0FC0C901841B950BA6
:100D8000A5E0880F991FAA95E1F70E94552E80E2F1
:100D9000861BF7FD81950895CB0165E0880F991FAB
:100DA0006A95E1F7BA01621B730B0E94552E80E62B
:100DB000EFCF1F93172F922FE42FF0E0EE0FFF1FBE
:100DC000E259FE4F408124EE429F412D1124E72F2E
:100DD000F0E050E09A01245E3F4F291B310937FFB4
:100DE00003C031952195310993E0220F331F9A9565
:100DF000E1F7E21BF30BF7FF02C0E0E0F0E07E2F2B
:100E0000719F712D11241F9108951F93182F822F08
:100E1000E42FF0E0EE0FFF1FE259FE4F408124EE79
:100E2000429F412D1124E12FF0E050E09A01245E11
:100E30003F4F281B310937FF03C0319521953109F8
:100E400083E0220F331F8A95E1F7CF01821B930BBA
:100E50009C0197FF02C020E030E0219F212D11244A
:100E6000822F1F9108950F931F93CF93DF93D62F57
:100E7000172FC82FBA01C901212F201B022F0E9452
:100E8000AA06982F990F990F782F791B700F719FD1
:100E9000712D11246D2F8C2FDF91CF911F910F9108
:100EA0000895FF920F931F93CF93DF93D62FC72FF1
:100EB000182FBA01C901F12EF01A0E94AA06982F24
:100EC000990F990F082F091B0F0D019F012D112458
:100ED0006D2F7C2F802FCDB7DEB7E5E00C94BE2EB2
:100EE000EF920F931F93CF93DF93D62F172FC82F17
:100EF000BA01C9010E19010F0E94AA06702F781BB2
:100F0000719F712D11246D2F8C2FDF91CF911F9127
:100F10000F91EF900895EF920F931F93CF93DF936C
:100F2000D62FC72F182FBA01C9010E19010F0E9421
:100F3000AA06081B019F012D11246D2F7C2F802FE5
:100F4000DF91CF911F910F91EF900895622F089537
:100F5000E42FF0E0EE0FFF1FE259FE4F6081621BAD
:100F60000895E42FF0E0EE0FFF1FEC5BFE4F63A54A
:100F7000621B0895322F50E0FA01EE0FFF1FEC5B69
:100F8000FE4F93A5905297FD9195440F551FFA017E
:100F9000E259FE4F2081231B330B290F311D97FD92
:100FA0003A95620F0895EF920F931F9310E0980106
:100FB000220F331F200F311F359527956E2D620F9D
:100FC0001F910F91EF9008950F93CF93DF93D72F39
:100FD000C82FB90147FD419528E330E0241B3109B2
:100FE00047FD3395229FA001239F500D500D1124E2
:100FF000669FC001679F900D900D1124840F951F6F
:101000000E944606982F990F692F680F600F7D2F59
:101010008C2FDF91CF910F9108950F93CF93DF9392
:10102000D72FC82FBA01C9010E94AA06682F600FE6
:101030007D2F8C2FDF91CF910F910895EF920F9319
:10104000CF93DF93D72FC82FBA01C9010E190E9481
:10105000AA06602F681B7D2F8C2FDF91CF910F91F7
:10106000EF9008950F931F93522F10E0F801EE0FA9
:10107000FF1FEC5BFE4FA3A5A052BB0B9D015203CB
:10108000F001539FF00D1124000F111FD801A25938
:10109000BE4F2C912057330B4203D001439FB00D1C
:1010A00011249F012A0F3B1F37FF02C021583F4FD9
:1010B000220F232F221F330B620F1F910F910895D0
:1010C0000F931F93522F10E0F801EE0FFF1FEC5B00
:1010D000FE4FA3A5A052BB0B9D015203F001539FED
:1010E000F00D1124000F111FD801A259BE4F2C91F1
:1010F0002057330B4203D001439FB00D11249F01B1
:101100002A0F3B1F37FF02C0215C3F4F96E0359509
:1011100027959A95E1F7620F1F910F9108950F930C
:101120001F93A42F10E0F801EE0FFF1FE259FE4FAE
:101130009081905797FD9195000F111FF801EC5B7E
:10114000FE4F03A50052110B2003A001219F500D5B
:10115000112428E330E0291B310997FD33951A2F1C
:101160001203F001139FF00D11244E0F5F1F9A011F
:10117000220F331F240F351F37FF02C021583F4F66
:10118000220F232F221F330B620F1F910F910895FF
:101190000F931F93CF93DF93D62F072F182FC42FB2
:1011A000822F0E948B06982FEC2FF0E0EE0FFF1F8E
:1011B000E259FE4F80818058980F97FD9195990FC5
:1011C000292F3CE0239F212D1124622F6D0F702FBA
:1011D000812FDF91CF911F910F910895E42FF0E0BF
:1011E000EE0FFF1FE259FE4F9081921B97FD9195E4
:1011F000292F38E1239F212D1124620F0895409556
:10120000282F429F412D1124842F089522E8241B6A
:1012100008F420E0620F0895EF92FF920F93970178
:1012200095E0099F200D311D11242F3F310519F044
:1012300010F02FEF30E02095382F320F08F43FEFF9
:10124000832F0F91FF90EF900895EF92FF920F93ED
:10125000E00EF11CF90137FF03C0F195E195F109AA
:1012600024E0EE0FFF1F2A95E1F7EF3FF10519F09B
:1012700014F0EFEFF0E09A0157FF03C0319521958C
:10128000310994E0220F331F9A95E1F72E173F079B
:101290000CF4F901EE0DFF1DEF3FF10519F010F010
:1012A000EFEFF0E02E2F2095382F320F08F43FEFAC
:1012B000832F0F91FF90EF900895EF92FF920F937D
:1012C000972FFA01B9019701093430F4201B310935
:1012D0002F3F310519F010F02FEF30E0389671975D
:1012E00040F0AB01485F5F4F4131510510F02FEFE7
:1012F00030E02095382F320F08F43FEF832F77FF2F
:1013000002C06D5F7F4F75956795759567952091C4
:10131000C303620F792F0F91FF90EF900895EF9222
:10132000FF920F939701201B31092F3F310519F0D0
:1013300010F02FEF30E0322F3095482F430F08F494
:101340004FEF842F620F0F91FF90EF900895EF926F
:10135000FF920F939701201B31092F3F310519F0A0
:1013600010F02FEF30E02095382F320F08F43FEFC8
:10137000832F0F91FF90EF9008959091DE02982BAC
:101380009093DE0208950E94840A08950E94A50A9F
:10139000089597E0899F802D1124980F933208F0CB
:1013A00092E20895982F862F2091C2032370222362
:1013B00089F0992381F0973280F49F73990F990FE8
:1013C0002091C2032370922B9093C20310921801B4
:1013D0000E94BD09089591E0F1CF96E2EFCF809190
:1013E000C203869586958F5F873208F081E061E0C1
:1013F0000E94D20908959091C203969596958FEF19
:10140000890F913009F486E261E00E94D2090895C3
:10141000982F822F2091C2032370222359F090939A
:10142000C3036093C403453B08F044EB4093C503FA
:101430000E94BD090895E2ECF3E0818190E021E093
:101440004381628108960E94080A0895E2ECF3E065
:10145000818121E0438162818850990B0E94080AB2
:101460000895E2ECF3E0628120E1620F08F46FEF8F
:10147000818121E0438190E00E94080A0895E2EC16
:10148000F3E0628120E1621B08F460E0818121E0E9
:10149000438190E00E94080A0895E2ECF3E0438162
:1014A00020E1420F08F44FEF818121E0628190E05A
:1014B0000E94080A0895E2ECF3E0438120E1421B18
:1014C00008F440E0818121E0628190E00E94080AF6
:1014D0000895E2ECF3E0248130E1230F08F42FEFCC
:1014E000248381E00E94BD090895E2ECF3E02481A9
:1014F00030E1231B08F420E0248381E00E94BD0931
:1015000008951092C8020895CF93DF93DC01FC0187
:10151000EE0FFF1FEF01CA0FDB1FCE59DD4F898190
:10152000861306C08881841303C08A81821751F014
:1015300081E08093C802EA0FFB1FEE59FD4F6183E3
:1015400040832283DF91CF910895FF920F931F93E1
:10155000CF93DF93182F062FF42EC0E0D0E02F2D6D
:10156000402F612FCE010E94840A2196C232D105FC
:10157000B1F7CDB7DEB7E5E00C94BE2EFA018823B3
:1015800011F009950895FB01FCCF282F35EB2303BB
:10159000C001112497FF04C080589109892F089534
:1015A00080589F4FFBCF8091B90380FF0DC06091A1
:1015B000140170E0660F771F60387105C0F5611582
:1015C0007105B9F1862F089581FF07C0609114015C
:1015D00084E0689FB0011124EFCF82FF04C06091C6
:1015E000140188E0F6CF8091B8038823E9F0909148
:1015F00013016091140170E0891730F093E0660FD9
:10160000771F9A95E1F7D8CF869F9001879F300D7D
:10161000112483E0220F331F8A95E1F7692F70E0D0
:10162000C9010E94552EC8CF68E070E0CBCF8FE78C
:10163000089581E008958091B90380FF0CC0609106
:10164000120170E07595679575956795611571053F
:1016500061F1862F089581FF06C06091120170E04C
:1016600075956795F3CF6091120170E082FD15C00A
:101670002091B7032223B1F09091110160911201E2
:1016800070E0291750F4269FA001279F500D1124C8
:10169000692F70E0CA010E94552E60387105B0F2C2
:1016A0008FE7089561E070E0D4CF81E00895E09184
:1016B0009703F0919803309729F00190F081E02D85
:1016C0000995089580E00895A3E0B0E0EAE6FBE024
:1016D0000C94A52E9C01809160029091610282176A
:1016E0009307A1F03093610220936002E091970389
:1016F000F0919803309751F083E089833B832A83EC
:101700000084F185E02DCE01019609952396E2E053
:101710000C94C12EA3E0B0E0E0E9FBE00C94A52E10
:101720009C0180915E0290915F0282179307A1F065
:1017300030935F0220935E02E0919703F09198034B
:10174000309751F084E089833B832A830084F185BC
:10175000E02DCE01019609952396E2E00C94C12E6E
:10176000909117019923C1F09091D00397FF14C075
:10177000E82FE695E695E695803FF8F4F0E0EC5D1D
:10178000FD4F877021E030E001C0220F8A95EAF713
:101790008281822B82830895AEE1B2E0EFEF90E088
:1017A0002D91821751F0EF3F19F4211101C0E92F5B
:1017B0009F5F9630A9F7EF3F09F408950E2E000CB5
:1017C000FF0BE45EFD4FE6CF909117019923E1F006
:1017D0009091D00397FF18C0E82FE695E695E6951F
:1017E000803FF0F4F0E0EC5DFD4F877021E030E0E9
:1017F000A90102C0440F551F8A95E2F7CA018095DE
:101800009281892382830895EEE1F2E09191891318
:1018100003C0DF0111971C9252E0E432F507B1F7E3
:1018200008952FB7F8948091CD029091CE02A091A7
:10183000CF02B091D0022FBF08950E94110C2091C9
:10184000BC033091BD03232B222321F080936B0333
:1018500090936C032091BE033091BF03232B22236E
:1018600021F08093690390936A03E0919703F091CC
:101870009803309749F082E08093BA030680F7819D
:10188000E02D8AEB93E0099508952091BC03909197
:10189000BF033091BE03662309F45AC04091BD03D3
:1018A000242B292B232B222331F098E09093B8038B
:1018B00091E09093B7038D3C41F40E94D30A819547
:1018C0008093BD030E941D0C0895E2E3E80FE2310E
:1018D000C8F7F0E0E15AF04D0C94882E0E94D30A2C
:1018E000EFCF0E94D30A81958093BC03EBCF0E9477
:1018F000D30AFACF0E941B0B8093BE03E3CF0E9452
:101900001B0B8195F9CF0E941B0B81958093BF0320
:10191000D9CF0E941B0BFACF815D990B21E030E0FB
:1019200001C0220F8A95EAF78091BB03822B809336
:10193000BB03C8CF8091B90381608093B903C2CF44
:101940008091B9038260F9CF8091B9038460F5CFAB
:101950008D3C59F48091BD0387FF0DC01092BD03EB
:10196000222359F41092B80308C08E3C81F4809170
:10197000BD0318169CF3222381F08091BE03909141
:10198000BF03892B81119ECF1092B7039BCF8F3C51
:1019900041F427FFF0CF1092BC038091BD03882350
:1019A000E0CF803D19F41216B4F3E5CF893D29F458
:1019B00013160CF71092BE03DECF8A3D19F437FFE1
:1019C000DACFF8CF8B3D29F497FFD5CF1092BF0324
:1019D000D2CF8C3D19F41916CCF3CDCF9FE2980FDE
:1019E000983090F4815D990B41E050E0BA0102C05B
:1019F000660F771F8A95E2F7CB0180959091BB0324
:101A000089238093BB03B7CF8D3D31F48091B90317
:101A10008E7F8093B903AFCF8E3D21F48091B903BF
:101A20008D7FF7CF8F3D09F0A6CF8091B9038B7FD3
:101A3000F0CFA4E0B0E0EFE1FDE00C94A52E8FB76D
:101A4000F8942091CD023091CE024091CF02509176
:101A5000D00229833A834B835C838FBF69817A816B
:101A60008B819C812496E2E00C94C12E9C014FB79F
:101A7000F8948091CD029091CE02A091CF02B091C6
:101A8000D0024FBF821B930B089587E797E790938F
:101A900001088093000888E19AE00FB6F894A895B1
:101AA000809360000FBE90936000FFCF80915D0235
:101AB0000895FC019B018091530290915402861776
:101AC000970740F0672B29F48091E8008E77809388
:101AD000E800C90140E0009741F4411106C080913F
:101AE000E80082FF2FC080E0089520917403222334
:101AF000A9F12530A9F12091E80023FD2DC0209106
:101B0000E80022FDECCF2091E80020FFE4CF3091E7
:101B1000F3002091F200009719F02830310558F0B9
:101B200041E02830310509F040E02091E8002E77AF
:101B30002093E800D0CF41914093F10001972F5FAF
:101B40003F4FE9CF80917403882341F0853041F005
:101B50008091E80083FFC3CF81E0089582E008957B
:101B600083E0089580914D0287FF13C08091E800C3
:101B700082FF06C08091E8008B778093E80004C064
:101B8000809174038111F2CF0895809174038823AA
:101B9000D9F38091E80080FFF8CF8091E8008E773C
:101BA000ECCF2091E4003091E50095E6A901809109
:101BB000EC008170882331F08091E80080FF06C03E
:101BC00080E008952091E80022FD1BC080917403FD
:101BD000882391F0853091F08091EB0085FD10C055
:101BE0002091E4003091E5004217530701F3915032
:101BF0009111DCCF84E0089582E0089583E0089598
:101C000081E00895E8EDF0E080818E7F808310927E
:101C1000E2001092DA001092E100A0EEB0E08C91A8
:101C200081608C9380818F77808319BCA7EDB0E0B1
:101C30008C918E7F8C9380818F7E808310924C025A
:101C40000895AF92BF92DF92EF92FF920F931F938E
:101C5000CF93DF935C01809100010E94C909C82FD6
:101C6000192F6091C60366958091D4029091D50298
:101C70000E943C06D82ED0E0CE01880F991F9C010F
:101C80002C5B3E4F7901C11770F081E0123208F0F1
:101C900080E0DF91CF911F910F91FF90EF90DF9047
:101CA000BF90AF900895FE01EE54FE4F8081909159
:101CB000010189238823C1F0F70123A52052330BAA
:101CC00042A54057550B6091C3037091C4038091A6
:101CD000C5030D2DF50109950E94B405462F672F08
:101CE000282FCE010E94C309F2E0EF0EF11C2196CD
:101CF000CACFA0E0B0E0EFE7FEE00C94992E3C01E3
:101D0000809100010E94C909C82F192F6091C60354
:101D100066958091D4029091D5020E943C06F82EDF
:101D2000D0E0CE01880F991F9C012C5B3E4F6901CA
:101D3000C11748F081E0123208F080E0CDB7DEB77D
:101D4000EEE00C94B52EFE01EE54FE4F8081909192
:101D500001018923882379F1F60182A5282F2057D4
:101D6000330B590183A5E82FE052FF0B4F01AA9CCA
:101D70009001AB9C300D300D1124EE9FC001EF9F00
:101D8000900D900D1124820F931F0E944606082F7C
:101D90006091C3037091C4038091C503EF2C94013B
:101DA000A501F30109950E94B405462F672F282F3E
:101DB000CE010E94C309F2E0CF0ED11C2196B8CF0C
:101DC000A4E0B0E0E6EEFEE00C949F2E6C01809162
:101DD00000010E94C9098B83F92E6091C6036695A4
:101DE00066958091D4029091D5020E943C06182FEE
:101DF00080E4810F0E948B0680588983812F0E9486
:101E00008B0680588A839B81892F90E09C838B83EB
:101E10009B819F1548F081E0E1E2EF1508F480E036
:101E20002496E8E00C94BB2EEB81FC81EE54FE4F2F
:101E300080819091010189238823A9F06091C303D7
:101E40007091C4038091C503E12E0B812A814981E1
:101E5000F60109950E94B405462F672F282F8B8124
:101E60009C810E94C3098B819C810196CFCFA0E009
:101E7000B0E0EDE3FFE00C94A02EEC01FC01EE5489
:101E8000FE4F8081909101018923882349F1D090F0
:101E9000C4030091C5031091C303E12EF12C0E94ED
:101EA0007606482FC7018C549F4F68E671E00E9468
:101EB000552E8E199F0997FD0396959587959595B3
:101EC00087954370612F489F600D11247D2D802FD1
:101ED0000E94B405462F672F282FCE010E94C30908
:101EE000CDB7DEB7E7E00C94BC2E1F93CF93DF9302
:101EF000EC01FC01EE54FE4F808190910101892399
:101F00008823B1F00E947606182F0E94760620E8FA
:101F1000829FC00111247FE7790F612F8091C50353
:101F20000E94B405462F672F282FCE010E94C309B7
:101F3000DF91CF911F910895EF92FF920F931F931E
:101F4000CF93DF937C01809100010E94C909C82FC3
:101F5000192F6091C6036695669521E0620F08F41B
:101F60006FEF8091D4029091D5020E943C06082F19
:101F7000D0E0C11748F081E0123208F080E0CDB720
:101F8000DEB7E6E00C94BD2EFE01EE54FE4F8081DC
:101F9000909101018923882391F06091C30370918E
:101FA000C4038091C503202F4C2FF70109950E948F
:101FB000B405462F672F282FCE010E94C309219612
:101FC000D8CFA0E0B0E0E7EEFFE00C949E2E8C01AD
:101FD000809100010E94C909C82FD92E2091C60303
:101FE00031E0230F08F42FEF30E040E050E06FEFD6
:101FF0007FEF80E090E00E94692E7901D0E0C22E50
:10200000BF2C2C2FCD1550F081E0F1E2FD1508F426
:1020100080E0CDB7DEB7E9E00C94BA2EFE01EE54B5
:10202000FE4F8081909101018923882319F140910D
:10203000DF024150042E000C550B47FF1DC08C2DB4
:102040009B2D6091C60321E0620F08F46FEF0E94A0
:102050003C06AC016091C3037091C4038091C50339
:10206000F80109950E94B405462F672F282FCE014D
:102070000E94C3092196C5CFFA01E152FD4F818923
:1020800082130AC0FA01EE0FFF1FE152FD4F818D4E
:10209000928D8E159F05A8F241505109CECFA8E030
:1020A000B0E0E5E5F0E10C94952E282E69837A8363
:1020B000809100010E94C9099B832091DF022C833B
:1020C000E82FF0E0F887EF83CF01880F991F9C017C
:1020D0002C5B3E4F6901822D90E0FC013196FE831E
:1020E000ED838B819F81981748F081E0EB81E2328C
:1020F00008F080E02896E2E10C94B12EEF81F8859B
:10210000EE54FE4F80819091010189238823F1F0E4
:102110004090C3035090C4032D813E8121523D4F16
:102120003901322C10E0FC813F16D0F02091C5031C
:10213000129F112D1124B201812F0E94B405462F48
:10214000672F282F8F8198850E94C3092F8138859A
:102150002F5F3F4F38872F8332E0C30ED11CC1CF92
:10216000F30181913F01F601A2A4A81ABB0883A440
:10217000F3018781881A9908AA9C9001AB9C300DC5
:10218000300D1124889CC001899C900D900D112464
:10219000820F931F0E944606082F6091C60321E01C
:1021A000620F08F46FEFF301EE0FFF1FEF5DF240D7
:1021B000858996890E943C067C019401A501B201A3
:1021C000812FE981FA8109952B01182F3394ABCF28
:1021D000982FE42FE2709093E900891308C0762FBE
:1021E000242F50E0E11111C091E0980FF4CF7091CD
:1021F000EC002091ED005091F00021FD06C09F5FA2
:10220000973049F78093E90008953091EB003E7FC5
:102210003093EB003091ED003D7F3093ED00309135
:10222000EB0031603093EB007093EC002093ED00F5
:102230005093F0002091EE0027FDE1CF0895A0E03B
:10224000B0E0E5E2F1E10C949F2EC8EDD0E088818A
:102250008F7E8883E7EDF0E080818160808384E079
:1022600082BF81E080934C0288818E7F888302EE5A
:1022700010E0F80110821092DA0081EEC82ED12C05
:10228000F601108288818F778883888180688883AF
:1022900088818F7D888319BC1092740310924B0241
:1022A00010920A0310924A0290EEE92EF12CF701E7
:1022B00080818B7F808388818160888342E060E0B9
:1022C00080E00E94E810F60180818E7F8083F80113
:1022D000808181608083808188608083F701808134
:1022E0008E7F8083888180618883CDB7DEB7E8E008
:1022F0000C94BB2EE091D4039091D30327E0E91313
:1023000002C080E00895AE2FB0E02E9FF0011124AE
:10231000EB52FC4F3181361306C03081381303C0B5
:102320003581341304C0FD013196E770E8CF81E0B8
:1023300008958091C802882341F16E9A3EB13F7B97
:102340002EB120644FB7F89482E692E0FC0101962A
:10235000508168E02EB9000000C057FF3EB9550F0C
:10236000000000C000C000C03EB900C06A9591F7EF
:1023700052E0883C950751F74FBF8FE594E00197F5
:10238000F1F700C000001092C80208950F931F9348
:10239000CF93DF93EB018A0190917403943079F528
:1023A0008093E9008FEF9091E80095FD07C095EDCF
:1023B0009A95F1F7000081508111F5CF8091E800E6
:1023C00085FF1DC00E94D10D811114C08091E800CD
:1023D00085FD06C08091E8008E778093E800F2CFFB
:1023E00088818093F100015011090115110511F048
:1023F0002196ECCF8091E8008E778093E800DF9102
:10240000CF911F910F910895CF93DF93D82FC92FAC
:1024100048E050E0682F792F81E00E94C61188E0E3
:10242000ED2FFC2FA5E5B2E001900D928A95E1F722
:10243000DF91CF910895BC0140E250E084E00E941A
:10244000C6110895BC0146E050E084E00E94C61128
:102450000895BC0143E050E084E00E94C611089555
:102460009091D10392FB222720F9281779F080FB65
:1024700092F99093D1036091D0037091D10384E0DD
:1024800090E00E943A2F82E00E94470308951F9334
:10249000CF93DF93962F122F632F8830D8F4963086
:1024A000C8F44730B8F4C42FD0E0CC0FDD1F2EE0C5
:1024B000929FC00DD11D112494E5899FC00DD11D9F
:1024C0001124CE0189960E941C2F612FCE018A967D
:1024D0000E941C2FDF91CF911F910895AF92BF9260
:1024E000CF92DF92FF920F931F93CF93DF93A12C94
:1024F000B12CC0E06501D0E019C021E030E0C2306D
:1025000020F4F801859194919C014F2D6D2F8C2F13
:102510000E944712F3940E5F1F4F87E0F812EDCF31
:10252000DF5F87E0C80ED11CD63039F08601000F7E
:10253000111F0D591D4FF12CE0CFCF5F8AE2A80E7D
:10254000B11CC830B9F6DF91CF911F910F91FF9068
:10255000DF90CF90BF90AF900895CF93DF93C9ECF9
:10256000D2E060E0CE010E941C2F2196C11584E0CC
:10257000D807B9F7DF91CF910895882381F065E2FC
:1025800085E290E00E941C2F61E086E290E00E94CC
:102590001C2F67E087E290E00E941C2F08956FEFE8
:1025A00085E290E00E941C2F6FEF86E290E00E948F
:1025B0001C2F6FEFEFCF80E00E94BD1260E088E239
:1025C00090E00E941C2F0E946E120E94AD1281E0CA
:1025D0000E94BD1208950F931F93CF93DF9388300D
:1025E00030F5663020F5473010F5C42FD0E0CC0F21
:1025F000DD1F2EE0629FC00DD11D112434E5839FA5
:10260000C00DD11D1124CE0189960E94FE2E082FE7
:1026100010E0102F0027CE018A960E94FE2E98010E
:10262000282BC901DF91CF911F910F91089580E070
:1026300090E0F8CF462F672F763038F4473028F4F3
:10264000883018F40E94EB12089580E090E008951D
:10265000A0E0B0E0EEE2F3E10C94A02E7C0100914A
:10266000CE038091CD03082BC7E0D0E010E0C80175
:102670000C2E02C0959587950A94E2F780FD09C05B
:102680002197A8F7D12C8D2DCDB7DEB7E7E00C94BC
:10269000BC2EDC2EB7018C2F0E941A130E948004DE
:1026A000019771F3F0CF0F931F93CF93FC018581B6
:1026B00000811181882391F0662381F0C8010E9476
:1026C0002813C82F682FC8010E94B102B8018C2FAF
:1026D0000E941A13CF911F910F910895C8010E9473
:1026E000E802C82FF3CFCF93DF93D82FC92F0E94D2
:1026F00028136D2F7C2F0E941A130E948004DF91F3
:10270000CF910895FC0184818823A1F0808191817B
:102710000E947313282F92959F70963091F060F469
:10272000925F9F70923030F481E0203F79F030F476
:10273000283E30F080E004C09A5FF3CF243FD1F709
:10274000089581E0283E18F0213FF9CF08950895BB
:1027500085E290E00E94FE2E853289F486E290E0C8
:102760000E94FE2E813059F487E290E00E94FE2EF6
:1027700091E0873009F090E0892F8170089580E022
:10278000FCCFA0E0B0E0E7ECF3E10C94982EC82F6A
:10279000809110018C1325C02091C203237030E07A
:1027A00040910F0150E081E02417350709F480E0E3
:1027B0008170809302018091C70390910101981765
:1027C00039F08093010140E060E080E00E94C6099A
:1027D000C73208F0B1C2EC2FF0E0EF58F04D0C9486
:1027E000882E81E0E5CF80910201882309F4ADC2F3
:1027F00040E060E080E00E94C609809100018F5FA8
:102800008093000182E08093180180910201882367
:1028100009F4A0C2CDB7DEB7EFE00C94B42E8091DE
:1028200000010E94C909082FD92F6091C30370913C
:10283000C4038091C5030E94B405F62EE72ED82E5E
:1028400010E00D1730F081E0D23208F496C080E03D
:1028500094C0F801EE54FE4F8081909101018923CC
:10286000882331F02D2D4F2D6E2DC8010E94C309F4
:102870000F5F1F4FE6CF809100010E94C909D92F39
:10288000D090C403C090C5033091C60320E4239FB9
:10289000212D1124082F10E0E22EF12C0D1798F6AF
:1028A000F801EE54FE4F8081909101018923882325
:1028B000E9F0F801EE0FFF1FEC5BFE4F22A52E9D05
:1028C000C0012F9D900D112425E0959587952A959F
:1028D000E1F76091C303680F7D2D8C2D0E94B40534
:1028E000462F672F282FC8010E94C3090F5F1F4F73
:1028F000D5CF809100010E94C909082FD92FF090EF
:10290000C3031091C403E090C5036091C6036695AC
:10291000669566958091D4029091D5020E943C06FE
:102920000E948B06805887FD8195880F282F3E2DA9
:10293000239F212D1124822F6F2D712F0E94B4050A
:10294000F62EE72ED82E10E00D1708F07CCFF801F8
:10295000EE54FE4F8081909101018923882331F04C
:102960002D2D4F2D6E2DC8010E94C3090F5F1F4FE3
:10297000EBCF89ED96E00E949C0F909100019F5F44
:1029800090930001811146CF82E0809318018091DD
:10299000020181113FCFCC233BCF85E097E0EBCF05
:1029A00083E397E00E94210EE8CF81E597E0FACF1C
:1029B00080E797E00E94790EE0CF8BE897E0FACFAE
:1029C00086EA97E0D8CF88EA97E0D5CF81EB97E009
:1029D000D2CF8AEB97E0CFCF83ED97E0EBCF84EEB9
:1029E00097E0E0CF8DE098E0DDCF8EE198E0E2CF98
:1029F00082E398E00E94E00EC0CF80E698E0FACF34
:102A00008FE898E0F7CF809100010E94C909D92F83
:102A100090910201911120C06091C60320E1620FE4
:102A200008F46FEF8091D4029091D5020E943C0689
:102A30006AE070E00E94412E892B09F004CF0E94C9
:102A4000760692E2899F90011124832F932F990F8C
:102A5000990B0E94370FF7CE082F10E0ED2EF12CC6
:102A60000E151F050CF0EFCEC8010E94370F0F5F47
:102A70001F4FF6CF809100010E94C909D92F909174
:102A80000201911120C06091C60320E1620F08F499
:102A90006FEF8091D4029091D5020E943C0665E0D0
:102AA00070E00E94412E892B09F0CDCE0E9476065F
:102AB000A2E28A9F90011124832F932F990F990BE3
:102AC0000E94750FC0CE082F10E0ED2EF12C0E15D0
:102AD0001F050CF0B8CEC8010E94750F0F5F1F4F85
:102AE000F6CF809100010E94C909082FD92FE090EC
:102AF000C403F090C5031091C3036091C6036695AB
:102B0000669566958091D4029091D5020E943C060C
:102B10000E948B0620E8280F27FD2195220F3CE01C
:102B2000239F212D1124612F620F7E2D8F2D0E9456
:102B3000B405F62EE72ED82E10E00D1708F083CE40
:102B4000F801EE54FE4F8081909101018923882382
:102B500031F02D2D4F2D6E2DC8010E94C3090F5F3E
:102B60001F4FEBCF88EC98E006CF8EEE98E003CFB6
:102B7000809100010E94C909682E092F80910201ED
:102B8000882361F040E060E080E00E94C609EBE04D
:102B9000F3E08AE2DF011D928A95E9F78091000156
:102BA000811117C08091D2029091D3020E94360DFC
:102BB0009C0181E02931310508F480E08093D10245
:102BC0002931310530F00E94110C9093D30280938B
:102BD000D202A12CB12C712C8AEA582E6501D0E0CA
:102BE000F601EC5BFE4FE080E61408F43EC0E01610
:102BF00008F03BC0F12CF701EE54FE4F808190911C
:102C000001018923882309F42FC0F601E55FFC4FF9
:102C10004F011081612F25E5621B08F460E070917F
:102C2000C403352D310F08F43FEF4091C503232F26
:102C3000220F230F2E5F249F212D1124352D361BAB
:102C4000632F822F0E94B405462F672F282FC701BC
:102C50000E94C3098091D102882331F021E0121B28
:102C600008F410E0D4011C937394DF5FBFEFCB1A1C
:102C7000DB0AD73009F0B4CFE3E2AE16B10419F4A1
:102C800081E00132E2CDF7E0AF0EB11C26E027155E
:102C900008F0A4CFF5CF8FEF98E00E94E10F6DCE42
:102CA00086E099E0FACF8091DF0221E0382F321BD5
:102CB00008F430E0832F6CE079E00E944F105DCE85
:102CC0006CE079E080E0F9CF8091DF0221E0382FDD
:102CD000321B08F430E0832F65E279E0EECF65E245
:102CE00079E0F0CF8091DF0221E0382F321B08F429
:102CF00030E0832F6DE579E0E0CF6DE579E0E2CF5C
:102D00008091DF0221E0382F321B08F430E0832F5E
:102D10006FE879E0D2CF6FE879E0D4CF8091DF021D
:102D200021E0382F321B08F430E0832F67EA79E086
:102D3000C4CF67EA79E0C6CF809100018F5F8093AE
:102D4000000182E08093180165CD809100018F5FC2
:102D50008093000183E0F6CF80911701882359F119
:102D60008091D00387FF27C00E945F0380932502D4
:102D700040E250E067E773E084E292E00E94402F77
:102D8000892BC1F080E2E4E2F2E0A7E7B3E0019032
:102D90000D928A95E1F7E0919703F09198033097AF
:102DA00049F086E0809324020480F581E02D84E2DE
:102DB00092E0099508950E945F0380931C0248E009
:102DC00050E069E973E08CE192E00E94402F892B8A
:102DD00089F388E0ECE1F2E0A9E9B3E001900D921B
:102DE0008A95E1F7E0919703F0919803309711F3FA
:102DF0000280F381E02D8CE192E0DBCF882381F12A
:102E00009CEF980F913A28F40E94E40B0E94AC16B4
:102E1000089590E2980F983050F4877091E001C0C7
:102E2000990F8A95EAF7892F0E948503EFCF9BE5DA
:102E3000980F933028F480E090E00E94640B08958E
:102E400098E5980F9B3128F480E090E00E948A0B6F
:102E5000089593E3980F933118F460E00E94450CB5
:102E60000895882339F09091CA03892B8093CA036F
:102E70000E94AC160895882321F00E9485030E94C9
:102E8000AC1608951092CA0380911701882339F176
:102E90008091D00387FF23C0E6E2F2E08EE1DF01FC
:102EA0001D928A95E9F780E090E00E94640B80E033
:102EB00090E00E948A0B1092D2030E94AC1686E02A
:102EC000EAEBF3E0DF011D928A95E9F71092B8036F
:102ED0001092B7031092B9030E941D0C0895EEE101
:102EE000F2E086E0DCCF0E9442172FEF84E39CE003
:102EF000215080409040E1F700C0000088E19AE056
:102F00000FB6F894A895809360000FBE9093600070
:102F1000FFCFAAE2B0E0EFE8F7E10C94A42E8DE435
:102F200092E0FC0101962091F100208322E085359A
:102F30009207B9F780914E02893009F456C0C8F45F
:102F4000823009F4B3C0833009F482C0813071F15A
:102F50008091E80083FFE7C080914D0290914E027E
:102F60009A3008F0E0C0E92FF0E0E856F04D0C94FC
:102F7000882E8A3009F489C08B3051F780914D0238
:102F8000813231F78091510290915202892B01F7E1
:102F90008091E800877F8093E8000E94B20D8091C5
:102FA0004F02809317010E944217D2CF80914D02A9
:102FB000813A71F68091E800877F8093E8008091E4
:102FC000510290915202892B61F060E080E090E024
:102FD00070E00E94590D8091E8008B778093E800A3
:102FE000B7CF68E085E592E0F3CF80914D02813262
:102FF00009F0AECF80915102909152028D7F892BC2
:1030000009F0A6CF8091E800877F8093E800809147
:10301000E80082FF18C09091F3008091F2000297BF
:1030200031F48091F100813011F0863021F48091EB
:10303000F10080935D028091E8008B778093E80037
:103040000E94B20D85CF809174038111E0CF80CFB3
:1030500080914D02813A09F07BCF8091510290918D
:103060005202892B09F074CF8091E800877F80930A
:10307000E8008091E80080FFFCCF809117018093E9
:10308000F1008091E8008E77D9CF80914D02813296
:1030900009F05ECF8091E800877F8093E8000E946E
:1030A000B20D809150028093490252CF80914D021F
:1030B000813A09F04DCF8091E800877F8093E80046
:1030C0008091E80080FFFCCF80914902D8CF803802
:1030D00089F0823841F5809151028F70873018F560
:1030E0008093E9008091EB0085FB882780F910929E
:1030F000E90006C080914A0290910A039111826012
:103100009091E800977F9093E8008093F1001092EF
:10311000F1008091E8008E7723C0811116C0809164
:103120004F02813011F18091E80083FF0AC0809145
:10313000E800877F8093E8008091EB0080628093B5
:10314000EB00AA96E3E00C94C02E823061F78091E8
:103150004F02882389F01092E9008091E800877F70
:103160008093E8000E94B20DDECF81E0933009F039
:1031700080E080930A03EFCF809151028F702FEF90
:10318000280F263080F68093E9002091EB0020FF85
:10319000E2CF933031F48091EB0080628093EB00BA
:1031A000DACF9091EB0090619093EB0021E030E05A
:1031B000A90102C0440F551F8A95E2F74093EA0027
:1031C0001092EA008091EB008860E8CF8111ABCFCC
:1031D00010914F021F778091E3008078812B8093BC
:1031E000E3008091E800877F8093E8000E94B20DA1
:1031F0008091E80080FFFCCF8091E300806880939D
:10320000E30083E0111101C082E0809374038BCF4F
:103210008058823008F087CF40914F025091500281
:103220004C3D83E0580799F583E08A838AE28983DD
:103230004FB7F894DE01139620E03EE051E2E32F11
:10324000F0E050935700849120FF03C082958F7067
:103250003F5F8F708A30C8F0895C90E08D939D93BA
:103260002F5F243161F74FBF8091E800877F809303
:10327000E8006AE270E0CE0101960E94590D80914B
:10328000E8008B778093E8004ECF805DE6CF809199
:10329000510290915202252F33272330310509F432
:1032A0004AC078F52130310509F479C08BE590E00A
:1032B000E8ECF1E02230310509F035CF2091E8004B
:1032C000277F2093E8002091530230915402821707
:1032D000930708F49C0140E02115310509F064C012
:1032E000411162C08091E80082FDC9CF80917403D2
:1032F000882329F2853019F28091E80083FFF2CF0C
:10330000BECF2132310509F43BC02232310509F02C
:103310000ACF8330910508F006CFFC01EE0FFF1FA6
:10332000ED5DFE4F0190F081E02D805E9E4FDC014F
:103330008C9190E011C0CA019927413089F0823008
:103340009105B1F0892B09F0EECEEFE5F2E0E491C2
:103350008E2F90E0EFE5F2E0009709F4E4CEAECFD7
:10336000E1E5F2E0E4918E2F90E0E1E5F2E0F4CFC8
:10337000E5E3F2E0E4918E2F90E0E5E3F2E0ECCFBC
:103380008330910508F0CFCEFC01EE0FFF1FE75D03
:10339000FE4F0190F081E02D89E090E08FCF82E137
:1033A00090E0E3E2F2E08ACF80917403882309F48D
:1033B00066CF853009F463CF8091E80083FD5FCF4D
:1033C0008091E80082FD8ECF8091E80080FF84CF5D
:1033D0009091F3008091F2002115310519F08830A9
:1033E000910550F041E0089709F040E08091E80035
:1033F0008E778093E80070CF44914093F10031962E
:10340000215031090196E8CF803809F08CCE8091A7
:10341000E800877F8093E80080914B028093F10061
:1034200078CE811180CE10914F02123008F07BCE01
:103430008091E800877F8093E80010934B020E9400
:10344000B20D1123D1F084E08093740342E061EC6B
:1034500081E00E94E81042E261EC84E00E94E81002
:1034600042E261EC82E00E94E81042E260EC83E01C
:103470000E94E8108091740356CE8091E30087FD8E
:10348000E2CF81E0E1CFA8E0B0E0E9E4FAE10C941A
:10349000A52E66EE7EEF80E090E00E943A2F60E07D
:1034A00082E090E00E941C2F81E08093CD0361E0D8
:1034B00083E090E00E941C2F60E074E184E090E0E3
:1034C0000E943A2F60E086E090E00E941C2F6FEF90
:1034D00087E090E00E941C2F40E050E0BA0188E0B5
:1034E00090E00E942E2F60E084E290E00E941C2F6A
:1034F00060E087E190E00E941C2F60E08CE090E0AB
:103500000E941C2F60E08DE090E00E941C2F198229
:103510001A821B821C821D821E821F82188648E02E
:1035200050E068E170E0CE0101960E940C2F40E06F
:1035300050E0BA0180E290E00E942E2F80E00E94CD
:10354000BD120E94DB1240E050E0BA018FE090E033
:103550000E942E2F40E050E0BA0183E190E00E94EB
:103560002E2F2896E2E00C94C12EEBEFE80FEF33FC
:1035700008F06CC0F0E0EE55F04D0C94882E0E94DF
:10358000431A81E0089580915E03807F80935E03FB
:1035900081E08093B603F5CF0E9442172FEF84E3BA
:1035A0009CE0215080409040E1F700C000000E9464
:1035B000450D90915E03892F8E7F90FF81608093EF
:1035C0005E0380FDDECF817F80935E03DACF909132
:1035D0005E03892F8D7F91FF826080935E0381FF60
:1035E000D0CF80915E038160EFCF90915E03892FF1
:1035F0008B7F92FF846080935E0382FDF2CFC1CF08
:1036000090915E03892F877F93FF886080935E038C
:1036100083FDE7CFB6CF0E9442179091D003892F48
:1036200097FB87F980588093D003ABCF81E00E944D
:103630008F020E944217A5CF895391E001C0990FD4
:103640008A95EAF7892FF3CF8D51F7CF80E008955F
:10365000CF93C82F882309F450C08CEF8C0F813A88
:1036600008F0E5C08091B6038130A1F1823009F401
:1036700049C0811144C08091CA03823229F48C2F41
:103680000E94B51A811139C080911701882309F46D
:10369000BEC08091D00387FFBAC0EC2FE695E695B7
:1036A000E695F0E0EC5DFD4F828190E04C2F477095
:1036B00021E030E002C0220F331F4A95E2F7822357
:1036C0009323892B09F4ADC08C2F0E94E40B0E9438
:1036D000AC16A7C08091CA03823289F2C43179F056
:1036E00040F4CB3051F0C03179F682E08093B603DC
:1036F00004C0C93221F0C83339F6CF910895109231
:10370000B603C2CFCF3409F46FC0B0F4C83290F41E
:10371000CE3140F5C73009F449C0C43171F780910A
:10372000B503882351F31092B5031092B40310929D
:10373000B303E3CFC932F2CFC13509F44AC091E0F7
:10374000C23509F452C0C035C1F6E091B303F0911F
:10375000B403309791F280818A50990B97FF55C03E
:103760001082CBCFCD51C093B503C430C9F078F4EB
:1037700085E191E0C23031F084E191E0C33011F095
:1037800086E191E09093B4038093B303B6CFC53044
:1037900051F081E191E0C630A9F31092B503ADCFAD
:1037A00083E191E0EFCF82E191E0ECCF81E0809383
:1037B000160184E1809315018AE0809314018EE163
:1037C0008093130188E08093120188E280931101B5
:1037D00094CFE091B303F091B403309709F48DCF07
:1037E00080818150990BBACF9AE0E091B303F091B8
:1037F000B403309709F481CF8081890F9927991FED
:103800008F3F910511F00CF08FEF808376CFEEE1C2
:10381000F2E08191C81709F457CF22E0E432F207B1
:10382000C1F78C2F0E94B00B0E94AC1666CF80E2CD
:103830008C0F883068F4C77081E090E001C0880F79
:10384000CA95EAF7C091CA03C82BC093CA03ECCF4C
:103850008BE58C0F833038F42C2F2452330BC901A5
:103860000E94640B4ACFE8E5EC0FEB3150F4F0E036
:10387000EE0FFF1FEC51FE4F808191810E948A0B59
:103880003CCF83E38C0F833108F037CF61E08C2F7E
:103890000E94450C32CF0F931F93CF93C82F00E0A7
:1038A00010E0893311F400E510E08C2F0E94281BF2
:1038B0000115110539F48C2F0E94FE16CF911F912E
:1038C0000F9108958FE99FE00197F1F700C0000084
:1038D00001501109EDCF0F931F93CF93DF93C62FA4
:1038E000D42F122F8823A9F06093C0030E94110CDB
:1038F0009093480280934702C77081E001C0880F0F
:10390000CA95EAF70E943117DF91CF911F910F916D
:1039100008958091C003681332C08091470290914E
:1039200048020E94360D883C910548F5CD130CC025
:10393000812F0E944B1CD77081E001C0880FDA955F
:10394000EAF70E943B17E0CFC77001E0802F01C06B
:10395000880FCA95EAF70E943B1780E28D0F8830E6
:1039600050F48D2F877001C0000F8A95EAF7802FE1
:103970000E943117DDCF812F0E944B1CC5CFC7702D
:1039800081E001C0880FCA95EAF7DBCFA8E0B0E07C
:10399000ECECFCE10C94992E6C01DC0114968C91FA
:1039A000882309F4ABC061E0C6010E9453138C0167
:1039B000F6018581882309F46FC5980137572038AF
:1039C000310508F05EC5003108F087C08FEF93E045
:1039D0000E94FE2E811181C039ECE32E32E0F32EDD
:1039E00001114AC01A821982FE01339686E0DF0176
:1039F0001D928A95E9F72AE0622E5701BFEFAB1AB4
:103A0000BB0AC7010E94FE2E89831A82882309F40B
:103A100064C0813009F076C087010E5F1F4FC50179
:103A20000E94FE2E8A83882309F457C09FEF980FC7
:103A3000933088F5E3E0EE0EF11CC8010E94FE2EE3
:103A40008B83882309F449C01C828E010F5F1F4FAE
:103A5000D8018C91882389F2813009F08EC01196AB
:103A60009C91119712968C91913009F04DC00E5F88
:103A70001F4F0E944B1C4EC0E114F4E0FF0669F199
:103A8000C7010E94FE2E97012F5F3F4F79018111E0
:103A9000F3CF0150A5CF8430B9F492E0E92EF12C98
:103AA000C8010F5F1F4F0E94FE2EE1E0F0E0EC0F17
:103AB000FD1FEE0DFF1D8083882379F08C3731F4D4
:103AC000FE01EE0DFF1D12827801BFCFFFEFEF1A4E
:103AD000FF0A27E0E216F10419F78091CF038770FF
:103AE000882361F0D60115968C91882339F0809156
:103AF000D10382FF03C082E00E9447032896EEE0D4
:103B00000C94B52E7501A1CF923039F40E5F1F4F82
:103B10000E94281B0F5F1F4F9BCF933029F40E5F2D
:103B20001F4F0E94FE16F6CF943019F00F5F1F4F03
:103B3000F1CF0E5F1F4F20E030E0A8014F5F5F4FD5
:103B40008053990B8A30910560F02115310511F3EE
:103B50008FE99FE00197F1F700C000002150310983
:103B6000F4CF629EB001639E700D11249C01260F5C
:103B7000371FF80181818A01E0CFE82FF0E0E55C92
:103B8000FB4F7490282F26952695269530E0F90155
:103B9000E55DFB4F94918770F901E55EFB4FA490C2
:103BA000B12C082E02C0B594A7940A94E2F7A1E0C4
:103BB000AA22BB24F901E55FFB4F8490912C082ECB
:103BC00002C0959487940A94E2F7B1E08B2299247D
:103BD000292F30E002C0359527958A95E2F720FD20
:103BE0000BC0AB28E9F4872D0E944B1C8114910473
:103BF00009F490CF8CE23DCF81EE0E94281BAB28C8
:103C000029F4872D0E944B1C81EE11C086EE0E9484
:103C1000281B872D0E944B1C86EE0E94FE16F4CFB7
:103C200086EE0E94281B872D0E944B1C86EE0E9468
:103C3000FE16DCCF26E241EE61EE0E946B1C4DCFFA
:103C400027E245EE65EEF9CF26E241EE60EEF5CFD4
:103C500027E245EE64EEF1CF26E241EE62EEEDCFD3
:103C600027E245EE66EEE9CF28E241E0EBCF109285
:103C7000C003C8019057839708F0CFC084E090E05C
:103C80000E94062F9093D1038093D003F801E15056
:103C9000F047E232F10520F4EF51F04D0C94882EFC
:103CA0008091D00381608093D0036091D0037091A4
:103CB000D10384E090E00E943A2F0E9442170DCF7A
:103CC0008091D10388608093D103EFCF8091D0039E
:103CD0008260E9CF8091D0038460E5CF8091D003EA
:103CE0008860E1CF8091D1038160EDCF8091D103D5
:103CF0008260E9CF8091D0038061D5CF8091D003DD
:103D00008062D1CF8091D0038064CDCF0E944217D2
:103D10008091D0038068C7CF8091D0038C60C3CFDF
:103D20008091D1038360CFCF8091D0038E7FBBCFB2
:103D30008091D103877FC7CF8091D0038D7FB3CF90
:103D40008091D0038B7FAFCF8091D003877FABCFA3
:103D50008091D1038E7FB7CF8091D1038D7FB3CF78
:103D60008091D0038F7E9FCF8091D0038F7D9BCF9A
:103D70008091D0038F7B97CF0E9442178091D00310
:103D80008F7791CF8091D003837F8DCF8091D103A6
:103D90008C7F99CF8091D00382FB992790F921E005
:103DA000922790FB82F990FB83F97DCF8091D1031C
:103DB000982F909591708E7F892B90FB81F983CFFE
:103DC0009091D003892F8F7B96FF80646CCF0E94E7
:103DD00042179091D003892F97FB87F9805863CFC2
:103DE00061E08EE090E00E941C2F5FCF60E0F9CF91
:103DF0009091D003892F8F7E94FF806154CF909152
:103E0000D003892F8E7F90FF81604DCF9091D10399
:103E1000892F877F93FF886056CF0631FCE71F0705
:103E200009F071C08091CA038A7A91E0811101C0C2
:103E300090E09093C103882331F085E30E94B00B9A
:103E40000E94AC164ACE89E2F9CF85E335C3809152
:103E5000CA038272F801E052F847E531F10508F033
:103E60007FC0ED5FFF4C0C94882E8091C20391E0DF
:103E700089278093C2031092180181E00E94BD0936
:103E80002CCE4BEF59E06FEE79E00E94BE0A25CEB2
:103E90004FEE59E06BEF79E0F8CF46E25AE06BE184
:103EA0007AE0F3CF4BE15AE066E27AE0EECF4FE3FF
:103EB0005AE061E37AE0E9CF41E35AE06FE37AE068
:103EC000E4CF4BE55AE06DE47AE0DFCF4DE45AE011
:103ED0006BE57AE0DACF45E75AE069E67AE0D5CFDC
:103EE00049E65AE065E77AE0D0CF61E081E00E94E0
:103EF000D209F3CD61E083E0FACF61E08BE0F7CF48
:103F000061E080E1F4CF07372CE7120709F484C0A1
:103F100082E008373CE7130709F47FC00A359CE7C5
:103F2000190709F4A3C008F086C00130BCE71B07DD
:103F300009F49AC00330ECE71E0709F48FC001159D
:103F4000FCE71F07B9F40E9442174FEF84E39CE09F
:103F5000415080409040E1F700C000000E94450DB4
:103F600007374CE7140709F460C008378CE71807D7
:103F700009F45FC0F6018581E080F180882309F4AF
:103F800079C0C7010E942813182F682FC7010E940B
:103F9000B102B701812F0E941A130E948004E82EFB
:103FA000192FD6011596BC9015971696AC90A29431
:103FB0008FE0A8228091CF038770882309F1FB2C22
:103FC000BB20F9F0892F807F803469F080E28E0D6C
:103FD0008830B0F0892F807E803229F4B1E0BE15A0
:103FE00078F4AA2069F08091D10382FF09C082E0B1
:103FF0000E9447038091CF038770FF24F3948111BF
:10400000F12CE12FE295EF70103C08F09AC0F0E03F
:10401000E85EFF4C0C94882E81E00E94950243E0FC
:1040200062E081E00E941C0358CD81E00E94A10261
:10403000F6CF82E0FBCF0B352CE71207C9F00C3529
:104040003CE7130709F096CF8091D10382FB8827C4
:1040500080F991E089270E9430128CCF6FEF7FEFBB
:1040600080E090E00E943A2F0E94731781E0F3CF26
:1040700080E0F1CFC7010E94E802182F8ACF012FFC
:104080000F70103110F00295007FBB20B9F00023B3
:1040900069F080E28E0D883010F0E11009C0809147
:1040A000CA03802B8093CA030E94AC168E2D41C098
:1040B0008091D203802B8093D203F6CF8E2D0E9465
:1040C000FE160023F1F180E28E0D883010F0E11031
:1040D00004C0802F0E94850306C000958091D20302
:1040E00080238093D2030E94AC162BC0012F0F7047
:1040F000107F103211F00295007FEE2051F0E1E0C8
:10410000EE1609F46CC0BB2009F478C0AA20D1F1E6
:10411000CDCF8091D10382FD31C0BB2069F0002357
:1041200039F08091CA03802B8093CA030E94AC1699
:1041300080E00E94281B05C080E00E94FE1601114D
:10414000C8CFFF20B1F08091CF0380FD12C0D6010F
:1041500015961C928695869586950E949502C601B5
:104160000E94C61C8091CF038695869586950E94F5
:10417000A10260E0C6010E945313C0CCBB2099F09D
:10418000A11004C0802F0E943117DBCFF1E0AF12E5
:10419000D8CF8091CB03902F9823091791F2802BD1
:1041A0008093CB03CECFA110CCCF802F0E943B17A2
:1041B0009091CB03802F8923882329F0802F80952D
:1041C00089238093CB038091CC03902F982399234C
:1041D00009F4B7CF009508230093CC03B2CFBB20DE
:1041E00029F025E02A1508F4ACCFCCCF34E03A15FD
:1041F00008F4A7CF802F0E943B17A3CFAA20D1F3AA
:1042000049E3E41209C08FEF97EEA3E0815090409C
:10421000A040E1F700C000008E2D0E94FE1691CF55
:10422000812F869586958370882369F0813009F007
:1042300088CF8E2D912F9370B11002C080E090E056
:104240000E948A0B7ECF8E2D912F9370B11002C0E9
:1042500080E090E00E94640B74CF6B2D8E2D0E9445
:10426000450C6FCF812F8370811137C0B1102AC0E8
:104270004E2D429546954770440F440F2E2D2F70BA
:10428000042E01C0220F0A94EAF79E2D9071992303
:1042900041F08FE090E001C0880F4A95EAF7982F2F
:1042A0009095169516951370123091F0892F822BE8
:1042B000133031F08091CD03113039F0292B822356
:1042C0000E948F020E94570B3CCF822B892BF8CF84
:1042D000292B8091CD038227F3CFBB2069F110FFFA
:1042E000F1CF4E2D429546954770440F440F2E2D29
:1042F0002F70042E01C0220F0A94EAF79E2D9071B0
:10430000992341F08FE090E001C0880F4A95EAF7C9
:10431000982F9095169516951370123099F0892F55
:10432000822B133031F08091CE03113041F0292BD4
:1043300082230E949202C6CF823020F2D2CF822BFB
:10434000892BF7CF292B8091CE038227F2CF1F70C4
:10435000BB2039F0812F0E9495028E2D0E943117CB
:10436000B1CF8E2D0E943B17812F0E94A102AACFB0
:10437000B2EFEB16A9F1BE1588F0E0EFEE16D9F01A
:10438000F1EFEF1609F443C0BB2009F467C0AA207F
:1043900009F461C08E2D0E94281B94CF23EFE216F2
:1043A00031F134EFE31679F1B110F1CFA11065C00E
:1043B000812F8F71DACFBB2081F044E04A1508F4D9
:1043C00081CF1F7181E090E0012E01C0880F0A9417
:1043D000EAF79091CE038927ACCF85E0A816EFCFFE
:1043E000812F8F71B110C1CF0E9495026BCF80E0F9
:1043F000BB2009F49ECF1F7181E0012E01C0880F00
:104400000A94EAF796CF8091D10382FD06C0812FEE
:104410008F71BB2009F4A9CFE7CFBB2089F01F71B2
:10442000812F0E9495028091D10382FF07C0A8E0EE
:104430001A9FC001112483608093CF03812FD4CFB2
:1044400081E00E944703B1E0BA1508F03BCF82E05B
:104450000E94470337CF812F8F71C6CFAA2009F45E
:10446000A7CFE9E3EE1209C0FFEF27EE33E0F150EA
:1044700020403040E1F700C000008E2D0E94FE1663
:1044800021CFF801E851FC47E730F10508F0EFCB08
:10449000EC5DFF4C0C94882EF801E851FC47E730A6
:1044A000F105B0F30631ECE71E0709F0D0CC80919E
:1044B000C1038111CACC89E20E94E40BC1CC809176
:1044C0001304803178F480911204882359F0E0912C
:1044D000D4032091D30330910E0440910D0457E092
:1044E0002E1301C008956E2F70E05E9FF00111241D
:1044F000DF01AB52BC4F14968C911497882361F165
:1045000011968C911197831327C08C91841324C02A
:1045100015968C91159781111FC012968D919C91C3
:10452000A0910F04B09110048A1B9B0B883C91054D
:1045300098F4809113048F70806180931304E55286
:10454000FC4F80818F70806180838DE094E00E94B9
:10455000C61C0E943D030895FB013196E770C0CF51
:10456000ADE0B0E0E6EBF2E20C94992E8C0186E02F
:10457000F801DE01189601900D928A95E1F7F80195
:104580007080F580A280B38084819DE0892E94E0C4
:10459000992E60901104611018C0882399F0FF20B3
:1045A00009F413C1C8010E948213882309F40DC1C4
:1045B00087E0F801ADE0B4E001900D928A95E1F753
:1045C0000E945F22FF24F39453C0D09012042091E4
:1045D0000F0430911004A501421B530BDD2009F498
:1045E000C4C0483C510508F07AC0882359F3809133
:1045F0000E04C180E0901304FFE0FE1508F459C0DA
:10460000C81215C080910D04871111C0F1104BC064
:104610008E2D8F708061809313048DE094E00E9452
:10462000C61C80911304F8018683F12C21C0F1107F
:104630003AC040E06C2D872D0E947A1140E06C2D2D
:10464000872D0E947A11F82E8111EFCF88859985E8
:104650000E947313292F22952F70903470F49F704D
:104660002230A0F09923B1F0F8019681903190F4B6
:104670008F2D2D96EEE00C94B52E2A5F2F702230F0
:1046800068F0C8010E94C61CFD2CF2CF992311F0DE
:10469000882371F3805E883058F3F3CF803F40F376
:1046A000815F8230F9CF809113048160809313047D
:1046B000BCCFC8123CC080910D04871138C0F110E6
:1046C00036C0F801E682C8010E94C61C87E0F801E6
:1046D000ADE0B4E001900D928A95E1F773CFE090E0
:1046E0001304FFE0FE1550F08DE094E00E94C61C1C
:1046F00087E0F40111928A95E9F797CF882309F4AE
:1047000061CF90910E04F8018181981310C08091BF
:104710000D0487110CC0F1100AC0E682C8010E9486
:10472000C61C87E0F40111928A95E9F74BCFC801C6
:104730000E948213882309F448C0FF2009F445C071
:1047400080911304803208F433CF80910D0490914E
:104750000E049A838983BC82AB826D821E82EF82B3
:10476000CE0101960E94C61C23CF483C510508F09B
:10477000BFCF882309F426CFFF2039F190910E0492
:104780008181981318C080910D04871114C0809105
:10479000130480FD9BCF803108F498CF8683807FFF
:1047A000803F09F490CF8681982F907F905F8F7023
:1047B000892B868388CFC8010E9482138111F8CE8D
:1047C00080911304816080931304C8010E94C61C69
:1047D000F9CEABE1B0E0EFEEF3E20C94A42E4E8BF9
:1047E0005F8B688F798F8A8F9B8F91111092D20384
:1047F0001D8A86E0FE017696DE011F9601900D92DD
:104800008A95E1F78B89882329F061E0CE010F9624
:104810000E94531387E0FE013F96DE011896019037
:104820000D928A95E1F7CE0108960E94B02281117F
:104830002BC087E0FE013896DE01119601900D92A3
:104840008A95E1F72091D3034091D4038C85882386
:10485000D9F030E0C90101968770992750E084179C
:104860009507E9F097E0929FD001939FB00D112436
:10487000AB52BC4FFE01319601900D929A95E1F733
:104880008093D3030E943D0317E08091D40390915D
:10489000D303891312C06B96E3E00C94C02E0E94E0
:1048A00042171092D3031092D40387E0EDE0F4E0B6
:1048B000DF011D928A95E9F7E7CF189FC001112407
:1048C0008B529C4F0E94B022882329F38091D403FD
:1048D00090E00196877099278093D403D6CFA6E005
:1048E000B0E0E5E7F4E20C94A32E0E94110C8C01D9
:1048F00080917503909176038017910779F0198262
:104900001A820E94110CBC0149815A8180E090E01A
:104910000E94E92310937603009375032696E4E042
:104920000C94BF2ECF93DF93E82FF0E021E06227B5
:10493000EE0FFF1FE60FF11DEE0FFF1FE45EFE4FAF
:10494000C081D181CE010E942813BE010E941A139A
:10495000EC01009729F00E94281B8C2F0E94FE1664
:10496000DF91CF91089548E050E068E170E082EC7B
:1049700093E00E940C2F1092DE020895E2ECF3E027
:104980008DE280838091190190911A01A0911B0101
:1049900081839283A3838FE784838FEF85830E9433
:1049A000B32408954F925F926F927F928F929F925D
:1049B000AF92BF92CF92DF92EF92FF92CF93DF93AD
:1049C000C090C902D090CA02E090CB02F090CC0215
:1049D0008FB7F8944090CD025090CE026090CF02F5
:1049E0007090D0028FBF530142018C189D08AE0811
:1049F000BF080E94190D6093C9027093CA02809388
:104A0000CB029093CC02A0913503E5E3F3E04A2F6B
:104A100050E02FEFC20ED21EE11CF11CC418D508C5
:104A2000E608F708A5132FC040933503209109032A
:104A3000C0E0211109C02091C203C22FC370CC2352
:104A400019F0C22FC695C69520911801223009F49D
:104A5000BBC060F521113CC0109200016093D402EC
:104A60007093D5028093D6029093D70289E2E5E352
:104A7000F3E0AFEDB2E001900D928A95E1F781E0AD
:104A80008093180116C0218D328D2901612C712C63
:104A9000C414D504E604F70420F441505F5F329655
:104AA000C1CF280D391D328F218FF8CF233009F463
:104AB00096C0DF91CF91FF90EF90DF90CF90BF90A5
:104AC000AF909F908F907F906F905F904F900895E0
:104AD0008C2F0E94C113CC2361F38091000181507F
:104AE0000E94C909D82FC92F0E94570B81FF0BC004
:104AF000D33148F4C33138F02FEF4FEF6FEF82E13D
:104B000090E00E94C3098091CE030E947D028150F3
:104B1000873078F6E82FF0E0E55DFF4C0C94882EA6
:104B2000D03238F6C03228F22FEF4FEF6FEF8FE11F
:104B300090E00E94C309BDCFD13208F0BACFC13294
:104B400008F4B7CF2FEF4FEF6FEF80E290E0F1CF97
:104B5000D23208F0AECFC23208F4ABCF2FEF4FEF16
:104B60006FEF81E290E0E5CFDA3108F0A2CFCA31F1
:104B700008F49FCF2FEF4FEF6FEF89E190E0D9CF8F
:104B8000DB3108F096CFCB3108F493CF2FEF4FEF06
:104B90006FEF8AE190E0CDCFDC3108F08ACFCC31E5
:104BA00008F487CF2FEF4FEF6FEF8BE190E0C1CF8D
:104BB000DD3108F07ECFCD3108F47BCF2FEF4FEF02
:104BC0006FEF8CE190E0B5CFC09310018091C203EC
:104BD000837080930F010E94991183E051CF8091DF
:104BE000DE0281110E94B3244091D4025091D5027B
:104BF0006091D6027091D7022FB7F8948091CD02C0
:104C00009091CE02A091CF02B091D0022FBF841B11
:104C1000950BA60BB70B4097A105B10508F449CF3A
:104C20001092180146CFA6E0B0E0E9E1F6E20C945C
:104C30009A2E1A821982FE01339684E0DF011D92BA
:104C40008A95E9F787E3A82E81E0B82E8E010F5FE1
:104C50001F4F9DE3E92E91E0F92E4801CC24C39427
:104C6000D12CF50181915F018F3F09F442C0F89486
:104C7000E82FE295EF70F0E021A18F70A60102C04D
:104C8000440F551F8A95E2F7CA01922F982B91A3E2
:104C900092A18095892382A3789400C0EDE3F1E08E
:104CA00031E0712C21912F3F09F447C0A22FA2952A
:104CB000AF70A05EB0E08C9190E02F7002C095952F
:104CC00087952A95E2F78170811137C0832F782A62
:104CD000330F51E0E434F50729F7F501319780816E
:104CE0008F3F11F00E949B0580EA8A95F1F7D80169
:104CF0007C920F5F1F4FEA14FB0409F0B2CF46E02D
:104D000050E0B40188ED92E00E94402F892BB9F069
:104D100086E0F401A8EDB2E001900D928A95E1F7EA
:104D200081E0809346020E94110C9093450280938B
:104D300044022696EDE00C94B62E80E0C8CF809118
:104D400046028823B1F380914402909145020E946B
:104D5000360D059770F346E050E068ED72E08EE6A0
:104D600093E00E94402F892B49F086E0E8EDF2E0C5
:104D7000AEE6B3E001900D928A95E1F710924602FB
:104D8000D8CFCDB7DEB7AD970FB6F894DEBF0FBE64
:104D9000CDBF85B7806885BF85B7806885BF84B77C
:104DA000877F84BF0FB6F894A895809160008861D2
:104DB00080936000109260000FBE80E890E00FB614
:104DC000F89480936100909361000FBE89E995E0AB
:104DD00090931B0280931A020E94020E0E941F11E0
:104DE0008091E20084608093E20078948091740363
:104DF000882399F08091E9001091EC001795112714
:104E000017958F70182B1092E9008091E80083FDB0
:104E10000E9489171F701093E90082E084BD93E01F
:104E200095BD9AEF97BD80936E000E94A8138111E3
:104E300002C00E94DB1281E08093670352985A9A65
:104E400053985B9A8FE891E00197F1F700C000005A
:104E50002091670348E653E0FA018E2F841B8217E6
:104E600008F45FC007E311E08DE3E82E81E0F82E3F
:104E7000D8018D918D018F3F11F00E949B05E016A6
:104E8000F106B1F70DE311E0B4E4EB2EB1E0FB2E37
:104E9000F80181918F018F3F11F00E949B05E01670
:104EA000F106B1F786E0EEE6F3E0DF01282F1D9270
:104EB0002A95E9F7E8EDF2E0DF011D928A95E9F71E
:104EC00080E090E00E94062F863E9E4F21F40E94D3
:104ED000A813811102C00E94431A82E090E00E9450
:104EE000FE2E80935E0384E090E00E94062F909354
:104EF000D1038093D0030E941326EFE3FCE931979E
:104F0000F1F700C000000E9413268091730381FF17
:104F100014C06FEF7FEF80E090E00E943A2F0E9474
:104F2000450D99B189B183FB882780F9880F92FBE1
:104F3000992790F9892B819390CF83E090E00E948C
:104F4000FE2E0E948F020E94810A1092DF0240E131
:104F500050E06FEF70E088EF92E00E94562F1092C1
:104F6000350340E150E06FEF70E08EE493E00E9483
:104F7000562F80E090E00E94062F863E9E4F21F43F
:104F80000E94A813811104C00E94431A0E94BE24EB
:104F900081E08093DE0248E050E068E170E082EC5E
:104FA00093E00E94EE2E1092DE028091C2038430C4
:104FB00010F40E94BE2485E091E0909398038093C2
:104FC0009703662463948091740313E0853009F499
:104FD0002DC10E941326AFE5B3E0BAA3A9A3EEE664
:104FE000F3E0FEA3EDA3DF01EFE5F3E091918D91F6
:104FF00023E0E536F20709F43DC19817B9F3412CD7
:10500000512CF12CADA1BEA1BD90BEA3ADA3E9A1D1
:10501000FAA18191FAA3E9A38B1509F4AEC08B25FF
:1050200089A76201E12CAA24A39489A58A21882357
:1050300009F497C02A2C2B20E982FA820E94110CD5
:105040009C838B83F1E0FD8391E0211001C090E00F
:105050009E8349815A816B817C818D810E94E923E5
:10506000909135032110A3C1993008F47AC000E073
:1050700010E0312CE8E08E2E912C801A910AB801B4
:105080006A5C7C4FA40186E393E00E944D2FB80137
:10509000625C7C4FA4018EE393E00E944D2FA4013B
:1050A000440F551FB801660F771F625B7C4F8EE47B
:1050B00093E00E944D2FB8016A5B7C4FA40186E407
:1050C00093E00E944D2F88E08319809335033110BF
:1050D00082C1222009F445C08091C2038C7F8836AA
:1050E00009F03FC0F601EC5BFE4F80818F3F09F471
:1050F00038C0812C912C212C90E09C01220F331F71
:10510000A90142595E4F5BA74AA7D901A159BE4FD9
:10511000BDA7ACA7F601E55FFC4FF8A7EFA384019C
:10512000312CF801EC5BFE4F80818F3F61F0F21073
:1051300076C1E31074C1AFA1B8A52C9130E2230F62
:1051400008F42FEF2C9333940F5F1F4FF7E03F12BB
:10515000E8CF239427E0820E911C3AE28316910453
:10516000F1F6E394AA0C4FEFC41AD40A57E0E51203
:105170005CCFE9A1FAA13197B082F39487E0480EA1
:10518000511C96E0F9123ECF0E94190D77C0809114
:105190007403843009F43AC00E94D2248091090338
:1051A00081110DC00E94C113109210018091C203A1
:1051B000837080930F010E9499111093180121E0D0
:1051C000209309031092080348E150E080E40FB6F1
:1051D000F894A895409360000FBE8093600083B759
:1051E000817F846083BF83B7816083BF7894889513
:1051F00083B78E7F83BF0FB6F894A8958091600027
:10520000886180936000109260000FBE80910A0355
:10521000882361F00E941326EEE6F3E084E793E032
:10522000219121110FC08E179F07D1F78091740330
:10523000853009F4ACCF0E9442170E94570B1092A0
:105240000903C7CE80E189BD82E189BD09B400FEB2
:10525000FDCF8091D8008F7D8093D8008091E000B1
:1052600082608093E0008091E00081FDFCCF0E948D
:105270004217DCCF9813C3CE0E946F240E94D22421
:10528000B12CA12C94E0E92EF12C80916703B81683
:1052900008F400C1A1100E94190D86E0EAEBF3E0CA
:1052A000DE01119601900D928A95E1F7F090BB0313
:1052B0000091BC031091BD03D090BE03E090BF03EA
:1052C0001092BC031092BD031092BE031092BF0354
:1052D000812F802B882399F080916B0390916C0330
:1052E0000E94360D9C018091B803882309F420C1E7
:1052F0004091150150E04217530708F427C18E2D45
:105300008D29882379F08091690390916A030E9426
:10531000360D9C018091B703811150C12B303105AE
:1053200008F052C18091BB03F81216C08091BC03F3
:10533000882311F0801310C09091BD03992311F0C0
:1053400019130AC02091BF03211106C02091BE038A
:10535000211102C0892B81110E941D0C86E0FE01E3
:105360003196AAEBB3E001900D928A95E1F70E9485
:10537000570B90916D03891721F080936D030E9464
:10538000190D80917403843009F01DCE83E0809361
:10539000E9008091E80082FF16CE8091E80085FD4B
:1053A0004CC18091E8008B778093E8000CCEF60129
:1053B000EC5BFE4F80818F3F31F4993008F48CCE46
:1053C00000E010E056CE782E01E010E03324339454
:1053D000983008F04FCE40913503872D90E0242F70
:1053E00030E0F901EB5CFC4FDC01AA0FBB1FA259B6
:1053F000BE4F5C915183880F991FDC01AC5BBE4F9F
:105400009B968C918187718AF901EE0FFF1FEB5CEF
:10541000FC4F128E118E4F5F409335035ACE90E0B1
:10542000AAA5BBA54C91FC01EE0FFF1FE259FE4F50
:105430002081421B550BECA5FDA52081880F991FEB
:10544000FC01EC5BFE4F83A5281B330B449FB0018E
:10545000459F700D700D1124229FC001239F900D58
:10546000900D1124860F971F0E944606382F89320F
:1054700008F069CE28E2231B08F420E0F801E55F7C
:10548000FC4F213108F020E13081320F08F43FEF6A
:10549000308359CECB2CD12C99B189B183FB88278D
:1054A00080F9880F92FB992790F9892BD601A8598A
:1054B000BC4FEC919E2F93708917C1F1EE0FEE0F48
:1054C000E82BEC93EF70F0E0EC52FE4F86010A59A6
:1054D0001C4F8081D8019C91890F8C9320E08430EF
:1054E0005CF0F601EB59FC4F80818F5F808360E0B8
:1054F0008B2D0E94922421E0F80180818D3F5CF485
:10550000F601EB59FC4F80818150808361E08B2D47
:105510000E94922421E0D8018C91082E000C990B56
:10552000B7010E94552EF8018083A22AB394ADCE14
:1055300040911601FAE04F9FA00111244217530732
:1055400008F0DDCE8F5F8093B80302C08F3FD1F7A4
:10555000002359F00E94D30A9FEF10160CF491E03B
:10556000899F802D11248093BC03112359F00E9440
:10557000D30A91E011160CF09FEF899F802D112422
:105580008093BD038091BC03882309F4B8CEC090FA
:10559000BD03CC2009F4B3CE0E94C50A811101C01D
:1055A00081E08093BC038C2D0E94C50A882319F0EA
:1055B0008093BD03A4CE6092BD03A1CE21353105F9
:1055C00008F4B0CE8F3F19F08F5F8093B703DD20D2
:1055D00059F00E941B0B9FEF1D140CF491E0899F62
:1055E000802D11248093BE03EE2059F00E941B0BE6
:1055F00091E01E140CF09FEF899F802D1124809361
:10560000BF038091BE03882309F48CCEE090BF03D2
:10561000EE2009F487CE0E94C50A811101C081E005
:105620008093BE038E2D0E94C50A882319F08093B3
:10563000BF0378CE6092BF0375CE0E94D10D882340
:1056400079F08091E8008B778093E8008981EFEF13
:10565000E80FE33190F5F0E0EE5CFF4C0C94882EFF
:1056600080E2E82EF12C8E010F5F1F4F8091E80041
:1056700085FD0AC08091E8008B778093E8000E9446
:10568000D10D882399F3DDCF8091F100D8018C935F
:10569000B1E0EB1AF108E114F10499F20F5F1F4F2A
:1056A000E5CF1A828CE08B831AC08A81833049F15E
:1056B00038F4813061F08230D9F08FEF89830FC0E8
:1056C0008430D9F71B821C821D821E8208C00E9472
:1056D000190D0E948E2E6B837C838D839E8340E206
:1056E00050E0BE016F5F7F4F82E00E94C6116BCC1D
:1056F00088E290E00E94FE2E1B821C821D828E8317
:10570000EECF8B8190E0DE011496863091053CF758
:10571000FC01FF27E259FC4F20812D930196F5CF24
:105720008A81823071F0853041F68091C20391E028
:1057300089278093C2031092180180E00E94BD095E
:10574000CECF2B813C814D815E8129A33AA34BA30F
:105750005CA3CA01B9010E948E2E88E290E00E94EB
:105760001C2FBDCF4C816B818A810E94EB12982740
:10577000892798279E838D83B2CF2D813E81322742
:10578000232732274C816B818A810E944712A7CF41
:105790000E946E12A4CF9A81933009F08ECF883088
:1057A00009F441C0893009F46BC08B818330B9F1B1
:1057B00098F48130D1F0823009F091CF8C819091B2
:1057C000C203292F237081111EC0211110921801CC
:1057D0009C7F9093C20383CF843009F080CF8C816B
:1057E00020E04091C5036D810AC04C8124EB429FAB
:1057F000412D11248091C30320E06091C40390E007
:105800000E94080A6CCF211102C0109218019C7FDF
:1058100091609093C20360E00E94D20960CF8C81B6
:105820008093C6038ACF8B81833039F180F4813035
:10583000C1F0823009F053CF8091C203982F93704A
:1058400086958695911101C080E08C8348CF843085
:1058500009F045CF8091C3038C838091C4038D836D
:105860003ECF8091C5033FEF839FC001112464EBBD
:1058700070E00E94412E6C8332CF8091C603E5CF49
:105880000E94B3242CCF80E18A8329CF81E08A83D0
:1058900087E309CFCA80DB80DC24CD24DC248C8123
:1058A0007601E80EF11C8E010B5F1F4FCE14DF0452
:1058B00009F415CF80E047E3C41641E0D40628F48C
:1058C000C60187539D4F0E94FE2ED8018D938D01F6
:1058D000BFEFCB1ADB0AEACF0A811B811027012711
:1058E0001027FE0131966F018C817F01E80EF11CBB
:1058F000CE14DF0409F4F3CE0733F1E01F0740F4C0
:10590000D60114966C91C80187539D4F0E941C2F9D
:105910000F5F1F4FBFEFCB1ADB0AEACF0E94AD1219
:10592000DECE88E0B1CFCA80DB80DC24CD24DC244D
:105930008C817601E80EF11C8E010B5F1F4FCE1497
:10594000DF0409F4CCCE80E0E0EACE16E2E0DE0629
:1059500020F4C60189960E94FE2ED8018D938D01F8
:10596000BFEFCB1ADB0AEBCF0A811B81102701277F
:105970001027FE0131966F018C817F01E80EF11C2A
:10598000CE14DF0409F4ABCE003AF2E01F0738F47E
:10599000D60114966C91C80189960E941C2F0F5F46
:1059A0001F4FBFEFCB1ADB0AEBCF1F921FB61F9220
:1059B00011248F939F93AF93BF938091080381111C
:1059C00013C08091CD029091CE02A091CF02B091F0
:1059D000D0024196A11DB11D8093CD029093CE02BD
:1059E000A093CF02B093D002BF91AF919F918F91BE
:1059F0001F901FBE1F90189578941F921FB61F927C
:105A000011248F939F93AF93BF938091CD02909178
:105A1000CE02A091CF02B091D0020196A11DB11D7E
:105A20008093CD029093CE02A093CF02B093D00288
:105A3000BF91AF919F918F911F901FBE1F9018959E
:105A40001F920F920FB60F9211242F933F934F93F3
:105A50005F936F937F938F939F93AF93BF93EF93D6
:105A6000FF938091E10082FF09C08091E20082FFF4
:105A700005C08091E1008B7F8093E1008091DA0086
:105A800080FF24C08091D80080FF20C08091DA0080
:105A90008E7F8093DA008091D90080FF9BC080E1E7
:105AA00089BD82E189BD09B400FEFDCF81E080930C
:105AB000740380914C02811109C00E94020E0E9461
:105AC0001F118091E20084608093E2008091E100E8
:105AD00080FF17C08091E20080FF13C08091E20038
